{"abi":[{"type":"constructor","inputs":[],"stateMutability":"nonpayable"},{"type":"receive","stateMutability":"payable"},{"type":"function","name":"acceptOwnership","inputs":[],"outputs":[],"stateMutability":"nonpayable"},{"type":"function","name":"addArenaToTournament","inputs":[{"name":"tid","type":"uint256","internalType":"uint256"},{"name":"arenaId","type":"uint256","internalType":"uint256"},{"name":"round","type":"uint8","internalType":"uint8"}],"outputs":[],"stateMutability":"nonpayable"},{"type":"function","name":"advanceTournamentRound","inputs":[{"name":"tid","type":"uint256","internalType":"uint256"}],"outputs":[],"stateMutability":"nonpayable"},{"type":"function","name":"arenaEpoch","inputs":[{"name":"","type":"uint256","internalType":"uint256"}],"outputs":[{"name":"","type":"uint32","internalType":"uint32"}],"stateMutability":"view"},{"type":"function","name":"arenas","inputs":[{"name":"","type":"uint256","internalType":"uint256"}],"outputs":[{"name":"startBlock","type":"uint40","internalType":"uint40"},{"name":"endBlock","type":"uint40","internalType":"uint40"},{"name":"pot","type":"uint128","internalType":"uint128"},{"name":"playerCount","type":"uint16","internalType":"uint16"},{"name":"tier","type":"uint8","internalType":"enum ArenaEngine.Tier"},{"name":"finalized","type":"bool","internalType":"bool"},{"name":"tournamentId","type":"uint256","internalType":"uint256"}],"stateMutability":"view"},{"type":"function","name":"commitPrediction","inputs":[{"name":"arenaId","type":"uint256","internalType":"uint256"},{"name":"commitHash","type":"bytes32","internalType":"bytes32"}],"outputs":[],"stateMutability":"nonpayable"},{"type":"function","name":"computeCommitHash","inputs":[{"name":"arenaId","type":"uint256","internalType":"uint256"},{"name":"player","type":"address","internalType":"address"},{"name":"salt","type":"bytes32","internalType":"bytes32"},{"name":"predWords","type":"uint256[]","internalType":"uint256[]"}],"outputs":[{"name":"","type":"bytes32","internalType":"bytes32"}],"stateMutability":"pure"},{"type":"function","name":"createArena","inputs":[{"name":"tier","type":"uint8","internalType":"enum ArenaEngine.Tier"},{"name":"duration","type":"uint40","internalType":"uint40"}],"outputs":[{"name":"arenaId","type":"uint256","internalType":"uint256"}],"stateMutability":"nonpayable"},{"type":"function","name":"createTournament","inputs":[{"name":"tier","type":"uint8","internalType":"enum ArenaEngine.Tier"},{"name":"roundCount","type":"uint8","internalType":"uint8"},{"name":"arenasPerRound","type":"uint8","internalType":"uint8"}],"outputs":[{"name":"id","type":"uint256","internalType":"uint256"}],"stateMutability":"nonpayable"},{"type":"function","name":"depositTournamentPot","inputs":[{"name":"tid","type":"uint256","internalType":"uint256"}],"outputs":[],"stateMutability":"payable"},{"type":"function","name":"emergencyWithdraw","inputs":[{"name":"arenaId","type":"uint256","internalType":"uint256"},{"name":"players","type":"address[]","internalType":"address[]"}],"outputs":[],"stateMutability":"nonpayable"},{"type":"function","name":"finalizeArena","inputs":[{"name":"arenaId","type":"uint256","internalType":"uint256"},{"name":"players","type":"address[]","internalType":"address[]"},{"name":"predWordsList","type":"uint256[][]","internalType":"uint256[][]"}],"outputs":[],"stateMutability":"nonpayable"},{"type":"function","name":"finalizeTournament","inputs":[{"name":"tid","type":"uint256","internalType":"uint256"},{"name":"winners","type":"address[]","internalType":"address[]"}],"outputs":[],"stateMutability":"nonpayable"},{"type":"function","name":"getArena","inputs":[{"name":"id","type":"uint256","internalType":"uint256"}],"outputs":[{"name":"","type":"tuple","internalType":"struct ArenaEngine.Arena","components":[{"name":"startBlock","type":"uint40","internalType":"uint40"},{"name":"endBlock","type":"uint40","internalType":"uint40"},{"name":"pot","type":"uint128","internalType":"uint128"},{"name":"playerCount","type":"uint16","internalType":"uint16"},{"name":"tier","type":"uint8","internalType":"enum ArenaEngine.Tier"},{"name":"finalized","type":"bool","internalType":"bool"},{"name":"tournamentId","type":"uint256","internalType":"uint256"}]}],"stateMutability":"view"},{"type":"function","name":"getEntryFee","inputs":[{"name":"tier","type":"uint8","internalType":"enum ArenaEngine.Tier"}],"outputs":[{"name":"","type":"uint128","internalType":"uint128"}],"stateMutability":"pure"},{"type":"function","name":"getOracleState","inputs":[{"name":"id","type":"uint256","internalType":"uint256"}],"outputs":[{"name":"","type":"tuple","internalType":"struct ArenaEngine.OracleState","components":[{"name":"nextBlock","type":"uint40","internalType":"uint40"},{"name":"ticksRecorded","type":"uint40","internalType":"uint40"},{"name":"lastPrice","type":"int256","internalType":"int256"}]}],"stateMutability":"view"},{"type":"function","name":"getPlayerState","inputs":[{"name":"id","type":"uint256","internalType":"uint256"},{"name":"p","type":"address","internalType":"address"}],"outputs":[{"name":"","type":"tuple","internalType":"struct ArenaEngine.PlayerState","components":[{"name":"commitHash","type":"bytes32","internalType":"bytes32"},{"name":"revealed","type":"bool","internalType":"bool"},{"name":"score","type":"uint16","internalType":"uint16"}]}],"stateMutability":"view"},{"type":"function","name":"getPriceTape","inputs":[{"name":"id","type":"uint256","internalType":"uint256"}],"outputs":[{"name":"","type":"uint256[]","internalType":"uint256[]"}],"stateMutability":"view"},{"type":"function","name":"getRakeBps","inputs":[{"name":"tier","type":"uint8","internalType":"enum ArenaEngine.Tier"}],"outputs":[{"name":"","type":"uint16","internalType":"uint16"}],"stateMutability":"pure"},{"type":"function","name":"getTournament","inputs":[{"name":"id","type":"uint256","internalType":"uint256"}],"outputs":[{"name":"","type":"tuple","internalType":"struct ArenaEngine.Tournament","components":[{"name":"tier","type":"uint8","internalType":"enum ArenaEngine.Tier"},{"name":"roundCount","type":"uint8","internalType":"uint8"},{"name":"arenasPerRound","type":"uint8","internalType":"uint8"},{"name":"currentRound","type":"uint8","internalType":"uint8"},{"name":"finalized","type":"bool","internalType":"bool"},{"name":"pot","type":"uint128","internalType":"uint128"},{"name":"creator","type":"address","internalType":"address"}]}],"stateMutability":"view"},{"type":"function","name":"godStreak","inputs":[{"name":"","type":"address","internalType":"address"}],"outputs":[{"name":"","type":"uint16","internalType":"uint16"}],"stateMutability":"view"},{"type":"function","name":"highlightsNFT","inputs":[],"outputs":[{"name":"","type":"address","internalType":"address"}],"stateMutability":"view"},{"type":"function","name":"joinArena","inputs":[{"name":"arenaId","type":"uint256","internalType":"uint256"}],"outputs":[],"stateMutability":"payable"},{"type":"function","name":"nextArenaId","inputs":[],"outputs":[{"name":"","type":"uint256","internalType":"uint256"}],"stateMutability":"view"},{"type":"function","name":"nextTournamentId","inputs":[],"outputs":[{"name":"","type":"uint256","internalType":"uint256"}],"stateMutability":"view"},{"type":"function","name":"oracle","inputs":[],"outputs":[{"name":"","type":"address","internalType":"contract IRedStonePriceFeed"}],"stateMutability":"view"},{"type":"function","name":"oracleState","inputs":[{"name":"","type":"uint256","internalType":"uint256"}],"outputs":[{"name":"nextBlock","type":"uint40","internalType":"uint40"},{"name":"ticksRecorded","type":"uint40","internalType":"uint40"},{"name":"lastPrice","type":"int256","internalType":"int256"}],"stateMutability":"view"},{"type":"function","name":"owner","inputs":[],"outputs":[{"name":"","type":"address","internalType":"address"}],"stateMutability":"view"},{"type":"function","name":"pause","inputs":[],"outputs":[],"stateMutability":"nonpayable"},{"type":"function","name":"paused","inputs":[],"outputs":[{"name":"","type":"bool","internalType":"bool"}],"stateMutability":"view"},{"type":"function","name":"pendingOwner","inputs":[],"outputs":[{"name":"","type":"address","internalType":"address"}],"stateMutability":"view"},{"type":"function","name":"recordTick","inputs":[{"name":"arenaId","type":"uint256","internalType":"uint256"}],"outputs":[],"stateMutability":"nonpayable"},{"type":"function","name":"recordTicks","inputs":[{"name":"arenaId","type":"uint256","internalType":"uint256"},{"name":"maxTicks","type":"uint40","internalType":"uint40"}],"outputs":[],"stateMutability":"nonpayable"},{"type":"function","name":"referrer","inputs":[{"name":"","type":"address","internalType":"address"}],"outputs":[{"name":"","type":"address","internalType":"address"}],"stateMutability":"view"},{"type":"function","name":"referrerBalance","inputs":[{"name":"","type":"address","internalType":"address"}],"outputs":[{"name":"","type":"uint256","internalType":"uint256"}],"stateMutability":"view"},{"type":"function","name":"renounceOwnership","inputs":[],"outputs":[],"stateMutability":"nonpayable"},{"type":"function","name":"resetArena","inputs":[{"name":"arenaId","type":"uint256","internalType":"uint256"},{"name":"duration","type":"uint40","internalType":"uint40"}],"outputs":[],"stateMutability":"nonpayable"},{"type":"function","name":"revealPrediction","inputs":[{"name":"arenaId","type":"uint256","internalType":"uint256"},{"name":"predWords","type":"uint256[]","internalType":"uint256[]"},{"name":"salt","type":"bytes32","internalType":"bytes32"}],"outputs":[],"stateMutability":"nonpayable"},{"type":"function","name":"setHighlightsNFT","inputs":[{"name":"_nft","type":"address","internalType":"address"}],"outputs":[],"stateMutability":"nonpayable"},{"type":"function","name":"setOracle","inputs":[{"name":"priceFeed","type":"address","internalType":"address"}],"outputs":[],"stateMutability":"nonpayable"},{"type":"function","name":"setReferrer","inputs":[{"name":"_ref","type":"address","internalType":"address"}],"outputs":[],"stateMutability":"nonpayable"},{"type":"function","name":"tournamentQualified","inputs":[{"name":"","type":"uint256","internalType":"uint256"},{"name":"","type":"uint8","internalType":"uint8"},{"name":"","type":"address","internalType":"address"}],"outputs":[{"name":"","type":"bool","internalType":"bool"}],"stateMutability":"view"},{"type":"function","name":"tournamentRoundArenas","inputs":[{"name":"","type":"uint256","internalType":"uint256"},{"name":"","type":"uint8","internalType":"uint8"},{"name":"","type":"uint256","internalType":"uint256"}],"outputs":[{"name":"","type":"uint256","internalType":"uint256"}],"stateMutability":"view"},{"type":"function","name":"tournaments","inputs":[{"name":"","type":"uint256","internalType":"uint256"}],"outputs":[{"name":"tier","type":"uint8","internalType":"enum ArenaEngine.Tier"},{"name":"roundCount","type":"uint8","internalType":"uint8"},{"name":"arenasPerRound","type":"uint8","internalType":"uint8"},{"name":"currentRound","type":"uint8","internalType":"uint8"},{"name":"finalized","type":"bool","internalType":"bool"},{"name":"pot","type":"uint128","internalType":"uint128"},{"name":"creator","type":"address","internalType":"address"}],"stateMutability":"view"},{"type":"function","name":"transferOwnership","inputs":[{"name":"newOwner","type":"address","internalType":"address"}],"outputs":[],"stateMutability":"nonpayable"},{"type":"function","name":"treasuryBalance","inputs":[],"outputs":[{"name":"","type":"uint256","internalType":"uint256"}],"stateMutability":"view"},{"type":"function","name":"unpause","inputs":[],"outputs":[],"stateMutability":"nonpayable"},{"type":"function","name":"withdrawReferralEarnings","inputs":[],"outputs":[],"stateMutability":"nonpayable"},{"type":"function","name":"withdrawTreasury","inputs":[],"outputs":[],"stateMutability":"nonpayable"},{"type":"event","name":"ArenaCreated","inputs":[{"name":"arenaId","type":"uint256","indexed":true,"internalType":"uint256"},{"name":"tier","type":"uint8","indexed":false,"internalType":"enum ArenaEngine.Tier"},{"name":"entryFee","type":"uint128","indexed":false,"internalType":"uint128"},{"name":"startBlock","type":"uint40","indexed":false,"internalType":"uint40"},{"name":"endBlock","type":"uint40","indexed":false,"internalType":"uint40"}],"anonymous":false},{"type":"event","name":"ArenaFinalized","inputs":[{"name":"arenaId","type":"uint256","indexed":true,"internalType":"uint256"},{"name":"winnerCount","type":"uint256","indexed":false,"internalType":"uint256"},{"name":"bestScore","type":"uint16","indexed":false,"internalType":"uint16"}],"anonymous":false},{"type":"event","name":"ArenaReset","inputs":[{"name":"arenaId","type":"uint256","indexed":true,"internalType":"uint256"},{"name":"newEpoch","type":"uint32","indexed":false,"internalType":"uint32"}],"anonymous":false},{"type":"event","name":"EmergencyWithdraw","inputs":[{"name":"arenaId","type":"uint256","indexed":true,"internalType":"uint256"},{"name":"player","type":"address","indexed":true,"internalType":"address"},{"name":"amount","type":"uint256","indexed":false,"internalType":"uint256"}],"anonymous":false},{"type":"event","name":"GodStreakUpdate","inputs":[{"name":"player","type":"address","indexed":true,"internalType":"address"},{"name":"streak","type":"uint16","indexed":false,"internalType":"uint16"}],"anonymous":false},{"type":"event","name":"HighlightsNFTSet","inputs":[{"name":"nft","type":"address","indexed":true,"internalType":"address"}],"anonymous":false},{"type":"event","name":"OracleSet","inputs":[{"name":"oracle","type":"address","indexed":true,"internalType":"address"}],"anonymous":false},{"type":"event","name":"OwnershipTransferStarted","inputs":[{"name":"previousOwner","type":"address","indexed":true,"internalType":"address"},{"name":"newOwner","type":"address","indexed":true,"internalType":"address"}],"anonymous":false},{"type":"event","name":"OwnershipTransferred","inputs":[{"name":"previousOwner","type":"address","indexed":true,"internalType":"address"},{"name":"newOwner","type":"address","indexed":true,"internalType":"address"}],"anonymous":false},{"type":"event","name":"Paused","inputs":[{"name":"account","type":"address","indexed":false,"internalType":"address"}],"anonymous":false},{"type":"event","name":"PlayerJoined","inputs":[{"name":"arenaId","type":"uint256","indexed":true,"internalType":"uint256"},{"name":"player","type":"address","indexed":true,"internalType":"address"},{"name":"ref","type":"address","indexed":true,"internalType":"address"}],"anonymous":false},{"type":"event","name":"PotDistributed","inputs":[{"name":"arenaId","type":"uint256","indexed":true,"internalType":"uint256"},{"name":"winner","type":"address","indexed":true,"internalType":"address"},{"name":"amount","type":"uint256","indexed":false,"internalType":"uint256"}],"anonymous":false},{"type":"event","name":"PredictionCommitted","inputs":[{"name":"arenaId","type":"uint256","indexed":true,"internalType":"uint256"},{"name":"player","type":"address","indexed":true,"internalType":"address"}],"anonymous":false},{"type":"event","name":"PredictionRevealed","inputs":[{"name":"arenaId","type":"uint256","indexed":true,"internalType":"uint256"},{"name":"player","type":"address","indexed":true,"internalType":"address"}],"anonymous":false},{"type":"event","name":"ReferralPaid","inputs":[{"name":"ref","type":"address","indexed":true,"internalType":"address"},{"name":"player","type":"address","indexed":true,"internalType":"address"},{"name":"amount","type":"uint256","indexed":false,"internalType":"uint256"}],"anonymous":false},{"type":"event","name":"ReferrerSet","inputs":[{"name":"player","type":"address","indexed":true,"internalType":"address"},{"name":"ref","type":"address","indexed":true,"internalType":"address"}],"anonymous":false},{"type":"event","name":"TicksRecorded","inputs":[{"name":"arenaId","type":"uint256","indexed":true,"internalType":"uint256"},{"name":"count","type":"uint40","indexed":false,"internalType":"uint40"}],"anonymous":false},{"type":"event","name":"TournamentArenaAdded","inputs":[{"name":"tournamentId","type":"uint256","indexed":true,"internalType":"uint256"},{"name":"round","type":"uint8","indexed":false,"internalType":"uint8"},{"name":"arenaId","type":"uint256","indexed":false,"internalType":"uint256"}],"anonymous":false},{"type":"event","name":"TournamentCreated","inputs":[{"name":"tournamentId","type":"uint256","indexed":true,"internalType":"uint256"},{"name":"tier","type":"uint8","indexed":false,"internalType":"enum ArenaEngine.Tier"},{"name":"roundCount","type":"uint8","indexed":false,"internalType":"uint8"},{"name":"arenasPerRound","type":"uint8","indexed":false,"internalType":"uint8"}],"anonymous":false},{"type":"event","name":"TournamentFinalized","inputs":[{"name":"tournamentId","type":"uint256","indexed":true,"internalType":"uint256"}],"anonymous":false},{"type":"event","name":"TournamentPlayerQualified","inputs":[{"name":"tournamentId","type":"uint256","indexed":true,"internalType":"uint256"},{"name":"round","type":"uint8","indexed":false,"internalType":"uint8"},{"name":"player","type":"address","indexed":true,"internalType":"address"}],"anonymous":false},{"type":"event","name":"TreasuryWithdrawn","inputs":[{"name":"to","type":"address","indexed":true,"internalType":"address"},{"name":"amount","type":"uint256","indexed":false,"internalType":"uint256"}],"anonymous":false},{"type":"event","name":"Unpaused","inputs":[{"name":"account","type":"address","indexed":false,"internalType":"address"}],"anonymous":false},{"type":"error","name":"AlreadyCommitted","inputs":[]},{"type":"error","name":"AlreadyJoined","inputs":[]},{"type":"error","name":"ArenaAlreadyFinalized","inputs":[]},{"type":"error","name":"ArenaAlreadyStarted","inputs":[]},{"type":"error","name":"ArenaNotActive","inputs":[]},{"type":"error","name":"ArenaNotEnded","inputs":[]},{"type":"error","name":"ArenaNotFound","inputs":[]},{"type":"error","name":"ArenaNotStarted","inputs":[]},{"type":"error","name":"ArenaNotStuck","inputs":[]},{"type":"error","name":"EnforcedPause","inputs":[]},{"type":"error","name":"ExpectedPause","inputs":[]},{"type":"error","name":"InsufficientFee","inputs":[]},{"type":"error","name":"InvalidPlayersArray","inputs":[]},{"type":"error","name":"InvalidReveal","inputs":[]},{"type":"error","name":"InvalidRound","inputs":[]},{"type":"error","name":"NoPlayers","inputs":[]},{"type":"error","name":"NoTicksToRecord","inputs":[]},{"type":"error","name":"NotJoined","inputs":[]},{"type":"error","name":"NothingToWithdraw","inputs":[]},{"type":"error","name":"OracleNotSet","inputs":[]},{"type":"error","name":"OwnableInvalidOwner","inputs":[{"name":"owner","type":"address","internalType":"address"}]},{"type":"error","name":"OwnableUnauthorizedAccount","inputs":[{"name":"account","type":"address","internalType":"address"}]},{"type":"error","name":"ReentrancyGuardReentrantCall","inputs":[]},{"type":"error","name":"ReferrerAlreadySet","inputs":[]},{"type":"error","name":"SelfReferral","inputs":[]},{"type":"error","name":"TapeAlreadyComplete","inputs":[]},{"type":"error","name":"TapeNotSet","inputs":[]},{"type":"error","name":"TournamentAlreadyFinalized","inputs":[]},{"type":"error","name":"TournamentNotFound","inputs":[]},{"type":"error","name":"TransferFailed","inputs":[]},{"type":"error","name":"ZeroAddress","inputs":[]}],"bytecode":{"object":"0x6080806040523460b857331560a557600180546001600160a01b03191690555f8054610100600160a81b0319811633600881811b610100600160a81b03169290921784559291901c6001600160a01b0316907f8be0079c531659141344cd1fd0a4f28419497f9722a3daafe3b4186f6b6457e09080a360017f9b779b17422d0df92223018b32b4d1fa46e071723d6817e2486d003becc55f00556132dd90816100bd8239f35b631e4fbdf760e01b5f525f60045260245ffd5b5f80fdfe6080604052600436101561001a575b3615610018575f80fd5b005b5f3560e01c8063048416b614612d225780630d4158c214612ce9578063124a7b0b14612afb578063166bab9514612a795780631a5bd7fc1461298e5780631a8425b41461289d5780631b14886f146127d857806321ce85e214611f3b57806328a2333414611ed15780632cf003c214611e91578063313dab2014611e745780633e105dc514611dce5780633f4ba83a14611d6a5780634240d98514611c8457806344118d0a14611aaf578063451459f214611a2f578063509ae9401461169f5780635a438492146116195780635c975abb146115f857806366df9056146115795780636918dca21461153d578063715018a6146114d25780637153ce541461146a578063719299ac146114235780637503e1b714611398578063768315101461137057806379ba5097146112d05780637adbf973146112685780637dc0d1d0146112405780637f61e6cf14610f15578063813fb92b14610e6d578063820568fd14610cc157806382df8f4b14610b945780638456cb5914610b3d57806384f4319c14610ab3578063852efc3d14610a965780638c705751146108ee5780638da5cb5b146108c3578063a18a7bfc14610807578063a3c65860146107ab578063b1e9c61714610603578063b20bfbb914610556578063c4cfd6981461051e578063cf8753b214610501578063de4241be146104d1578063e30c3978146104a9578063f2fde38b14610434578063f36dd93e146103c35763f6b3a00a0361000e5760203660031901126103bf57600435610250613156565b805f52600760205260405f2080549064ffffffffff821680156103b0574310156103a1575f838152600b60209081526040808320600883528184205463ffffffff168452825280832033845290915290208054909290610393576102c160ff6001600160801b039260e01c16612e72565b16341061038557600161034592556102ff6102e361ffff835460d01c16613057565b825461ffff60d01b191660d09190911b61ffff60d01b16178255565b61031f6001600160801b0334166001600160801b03835460501c166130cc565b8154600160501b600160d01b03191660509190911b600160501b600160d01b0316179055565b335f818152600d60205260408120546001600160a01b031692907fed64df19068042f8a67de2d9329935266aa516076d9f76c4149f20b57dd101d39080a4005b62976f7560e21b5f5260045ffd5b621d934160e11b5f5260045ffd5b63159ee25360e21b5f5260045ffd5b6307e7eda560e51b5f5260045ffd5b5f80fd5b346103bf5760203660031901126103bf576103dc613122565b506004355f52600a602052606060405f206040516103f981612f39565b64ffffffffff8254604060018383169586865284602087019460281c1684520154930192835260405193845251166020830152516040820152f35b346103bf5760203660031901126103bf5761044d612dc7565b610455613140565b60018060a01b0316806bffffffffffffffffffffffff60a01b600154161760015560018060a01b035f5460081c167f38d16b8cac22d99fc7c124b9cd0de2d3fa1faef420bfe791d8c362d765e227005f80a3005b346103bf575f3660031901126103bf576001546040516001600160a01b039091168152602090f35b346103bf5760203660031901126103bf576004355f526008602052602063ffffffff60405f205416604051908152f35b346103bf575f3660031901126103bf576020600254604051908152f35b346103bf5760203660031901126103bf576001600160a01b0361053f612dc7565b165f52600e602052602060405f2054604051908152f35b346103bf5760403660031901126103bf57600435610572612ddd565b9061057b613122565b50805f52600b60205260405f20905f52600860205263ffffffff8060405f205416165f5260205260405f209060018060a01b03165f52602052606060405f2061ffff6040516105c981612f39565b6001835493848352015490826040602083019260ff851615158452019260081c168252604051938452511515602084015251166040820152f35b346103bf5760403660031901126103bf5760043561061f612d56565b610627613140565b815f52600760205260405f20805464ffffffffff8116156103b05760e81c60ff161561079c57825f526008602052600163ffffffff60405f205416019163ffffffff8311610788575f916106e96106c5600193878652600860205263ffffffff604087209716968763ffffffff198254161790556106ab64ffffffffff4316612ece565b845464ffffffffff191664ffffffffff8216178555612f02565b825469ffffffffff0000000000191660289190911b64ffffffffff60281b16178255565b80547fffff00ff000000000000000000000000000000000000ffffffffffffffffffff16815501555f82815260096020526040812080549181558161076a575b837f4bf008753ced3a3965117d2d32648868da01fcf059dfc1425b4c5aa10225e300602085835f52600a82525f6001604082208281550155604051908152a2005b5f5260205f20908101905b81811015610729575f8155600101610775565b634e487b7160e01b5f52601160045260245ffd5b633ac17ab760e21b5f5260045ffd5b346103bf5760603660031901126103bf576107c4612da7565b604435906004355f52601060205260ff60405f2091165f5260205260405f2080548210156103bf576020916107f891612e26565b90549060031b1c604051908152f35b346103bf5760203660031901126103bf576001600160a01b03610828612dc7565b1680156108b4573381146108a557335f908152600d60205260409020546001600160a01b031661089657335f818152600d6020526040812080546001600160a01b031916841790557f5f7165288eef601591cf549e15ff19ef9060b7f71b9c115be946fa1fe7ebf68a9080a3005b6312cf907360e31b5f5260045ffd5b632af47b8760e11b5f5260045ffd5b63d92e233d60e01b5f5260045ffd5b346103bf575f3660031901126103bf575f5460405160089190911c6001600160a01b03168152602090f35b346103bf5760603660031901126103bf576004356024356001600160401b0381116103bf57610921903690600401612d77565b610929613156565b825f52600760205260405f205464ffffffffff8116156103b05764ffffffffff8160281c1643111561079c5760e81c60ff16610a87575f838152600b60209081526040808320600883528184205463ffffffff1684528252808320338452909152902080549081158015610a7d575b610a6e576001019283549260ff8416610a5f576109d16109c3916040519283916020830195866130ec565b03601f198101835282612f54565b51902060408051602081018781523360601b6bffffffffffffffffffffffff1916928201929092526044356054820152607481019290925290610a1781609481016109c3565b51902003610a505760ff1916600117905533907f78cefff9cb02579fbb9a52fad21c904c38d3210e8fd6323f2f53fafce77b0d675f80a3005b639ea6d12760e01b5f5260045ffd5b6317fd8aab60e31b5f5260045ffd5b63c394a43360e01b5f5260045ffd5b5060018214610998565b63531502ff60e01b5f5260045ffd5b346103bf575f3660031901126103bf576020600354604051908152f35b346103bf5760203660031901126103bf576004355f52600760205260e060405f206001815491015460ff6040519264ffffffffff8116845264ffffffffff8160281c1660208501526001600160801b038160501c16604085015261ffff8160d01c166060850152610b2b608085018383881c16612d6a565b60e81c16151560a083015260c0820152f35b346103bf575f3660031901126103bf57610b55613140565b610b5d613156565b600160ff195f5416175f557f62e78cea01bee320cd4e420270b5ea74000d11b0c9f74754ebdbfc544b05a2586020604051338152a1005b346103bf5760603660031901126103bf57600435602435610bb3612db7565b90610bbc613140565b825f52600f60205260ff60405f205460081c1615610cb257825f52600f60205260ff8060405f205460081c16921691821015610ca3576001830180841161078857815f526007602052600160405f200155825f52601060205260405f20825f5260205260405f2091825491600160401b831015610c8f5780610c80610c6a857f56e6bb4c879645efae5565937ffef47c54eea3379c5279f963f665f5b999be81976001604098018155612e26565b819391549060031b91821b915f19901b19161790565b905582519182526020820152a2005b634e487b7160e01b5f52604160045260245ffd5b6328ad4a9560e21b5f5260045ffd5b6303361a2560e01b5f5260045ffd5b346103bf57610ccf36612df3565b91610cd8613140565b610ce0613170565b805f52600760205260405f2080549064ffffffffff8216156103b05760ff8260e81c16610a875761c35064ffffffffff8360281c160164ffffffffff81116107885764ffffffffff164310610e5e5780547fffff00ffffff00000000000000000000000000000000ffffffffffffffffffff16600160e81b17905583610d74575b60015f5160206132885f395f51905f5255005b836001600160801b03610d8a9260501c1661302c565b905f5b848110610d9a5750610d61565b600190825f52600b60205260405f20835f52600860205263ffffffff8060405f205416165f5260205260405f20610dda610dd5838989612ff5565b613005565b838060a01b03165f5260205260405f2054610df6575b01610d8d565b5f80808087610e09610dd5878d8d612ff5565b5af1610e13612f81565b5015610df057818060a01b03610e2d610dd5838989612ff5565b16837f947a9dc0c5e62cc9756634ec0a89afea37eb0305933925040b9bda82004400206020604051888152a3610df0565b630547900f60e11b5f5260045ffd5b346103bf5760803660031901126103bf57610e86612ddd565b606435906001600160401b0382116103bf576109c3610f0a610ec76109c3610eb46020963690600401612d77565b60409391935192839189830195866130ec565b51902060405160043586820190815260609590951b6bffffffffffffffffffffffff19166020860152604435603486015260548501919091529182906074850190565b519020604051908152f35b346103bf5760203660031901126103bf57600654600435906001600160a01b03161561123157805f52600760205260405f205464ffffffffff811680156103b05760ff8260e81c16610a875764ffffffffff431690808210801561121e575b61120f57835f52600a602052610f988164ffffffffff60405f209560281c16613083565b64ffffffffff80855460281c1691168110156112005715611177575b50815464ffffffffff81168210611168576006546040516350d25bcd60e01b81529190602090839060049082906001600160a01b03165afa91821561115d575f92611129575b5064ffffffffff61101a60ff63ffffffff8460301c169360281c1661306a565b165b855f5260096020528160405f20541161104857855f52600960205261104360405f2061309f565b61101c565b600185019182548412156110e7575b50505564ffffffffff825460281c1664ffffffffff8114610788577f455b7f4c67bffe33f7c6cd2216adb43bef0f4fc5c063d0aa09205cda733114429264ffffffffff6110d06020946110cb6001849601859064ffffffffff60281b82549160281b169064ffffffffff60281b1916179055565b612ee8565b1682198254161781555460281c16604051908152a2005b6110ff61112091885f52600960205260405f20612e26565b815491935f1960039290921b91821b19831692821c600190911b17901b1790565b90558580611057565b9091506020813d602011611155575b8161114560209383612f54565b810103126103bf57519085610ffa565b3d9150611138565b6040513d5f823e3d90fd5b63381b139b60e11b5f5260045ffd5b825464ffffffffff191664ffffffffff919091161782556006546040516350d25bcd60e01b815290602090829060049082906001600160a01b03165afa90811561115d575f916111ce575b50600183015583610fb4565b90506020813d6020116111f8575b816111e960209383612f54565b810103126103bf5751846111c2565b3d91506111dc565b639a32d20360e01b5f5260045ffd5b63237ce2fd60e21b5f5260045ffd5b5064ffffffffff8360281c168211610f74565b633e1e538160e21b5f5260045ffd5b346103bf575f3660031901126103bf576006546040516001600160a01b039091168152602090f35b346103bf5760203660031901126103bf57611281612dc7565b611289613140565b6001600160a01b031680156108b457600680546001600160a01b031916821790557f3f32684a32a11dabdbb8c0177de80aa3ae36a004d75210335b49e544e48cd0aa5f80a2005b346103bf575f3660031901126103bf57600154336001600160a01b039091160361135d57600180546001600160a01b03191690555f8054610100600160a81b0319811633600881811b610100600160a81b03169290921784559291901c6001600160a01b0316907f8be0079c531659141344cd1fd0a4f28419497f9722a3daafe3b4186f6b6457e09080a3005b63118cdaa760e01b5f523360045260245ffd5b346103bf575f3660031901126103bf576004546040516001600160a01b039091168152602090f35b346103bf5760203660031901126103bf576004355f52600f60205260e060405f208054906001808060a01b03910154166001600160801b03604051926113e18460ff8316612d6a565b60ff8160081c16602085015260ff8160101c16604085015260ff8160181c16606085015260ff8160201c161515608085015260281c1660a083015260c0820152f35b346103bf5760203660031901126103bf576004355f52600a602052606060405f206001815491015464ffffffffff60405192818116845260281c1660208301526040820152f35b346103bf5760203660031901126103bf57611483612dc7565b61148b613140565b6001600160a01b031680156108b457600480546001600160a01b031916821790557f3881b05a9993314cfe4c48c40eaf8ca7691e1966b1a07041c272c0ef2433d9125f80a2005b346103bf575f3660031901126103bf576114ea613140565b600180546001600160a01b03191690555f8054610100600160a81b03198116825560081c6001600160a01b03167f8be0079c531659141344cd1fd0a4f28419497f9722a3daafe3b4186f6b6457e08280a3005b346103bf5760203660031901126103bf576001600160a01b0361155e612dc7565b165f52600c602052602061ffff60405f205416604051908152f35b346103bf5760203660031901126103bf57611592613140565b6004355f52600f60205260405f20805460ff8160081c1615610cb25760ff8160201c166115e95760ff9060181c169060ff8214610788576001610018920163ff00000082549160181b169063ff0000001916179055565b634a6d421760e01b5f5260045ffd5b346103bf575f3660031901126103bf57602060ff5f54166040519015158152f35b60203660031901126103bf57600435611630613140565b805f52600f60205260ff60405f205460081c1615610cb2575f52600f60205261001860405f206116766001600160801b0334166001600160801b03835460281c166130cc565b65010000000000600160a81b0382549160281b169065010000000000600160a81b031916179055565b346103bf5760403660031901126103bf576004356116bb612d56565b6006546001600160a01b03161561123157815f52600760205260405f2080549164ffffffffff83169182156103b05760ff8460e81c16610a875764ffffffffff431683811061120f57855f52600a6020526117248464ffffffffff60405f209760281c16613083565b9364ffffffffff865460281c1664ffffffffff861681101561120057156119a6575b50845464ffffffffff811694858310611168576006546040516350d25bcd60e01b81529390602090859060049082906001600160a01b03165afa93841561115d575f9461196e575b506117ba6110cb64ffffffffff92836117c59697985460281c168082105f146119665750985b89613083565b9360281c1690613083565b64ffffffffff811664ffffffffff8316105f1461195e5750915b8264ffffffffff808316911611611956575b5064ffffffffff821680156111685760018501908154831215905f905b8064ffffffffff83161061188657887f455b7f4c67bffe33f7c6cd2216adb43bef0f4fc5c063d0aa09205cda73311442602064ffffffffff8b816110d08d6110cb6118628f8f8f5585875460281c16612f02565b855469ffffffffff0000000000191660289190911b64ffffffffff60281b16178555565b94909591979692936118a38764ffffffffff865460281c16612f02565b9464ffffffffff6118c060ff63ffffffff8960081c16981661306a565b16965b895f5260096020528660405f2054116118ef57895f5260096020526118ea60405f2061309f565b6118c3565b9296978a949864ffffffffff93978b600194989c9d611914575b50505001169061180e565b61194c9161192c915f52600960205260405f20612e26565b815491935f1960039290921b91821b19831692821c9087901b17901b1790565b90558b808c611909565b9150856117f1565b9050916117df565b9050986117b4565b909293506020813d60201161199e575b8161198b60209383612f54565b810103126103bf575192916117ba61178e565b3d915061197e565b855464ffffffffff191664ffffffffff919091161785556006546040516350d25bcd60e01b815290602090829060049082906001600160a01b03165afa90811561115d575f916119fd575b50600186015586611746565b90506020813d602011611a27575b81611a1860209383612f54565b810103126103bf5751876119f1565b3d9150611a0b565b346103bf575f3660031901126103bf57611a47613170565b335f52600e60205260405f20548015611aa0575f80808093338252600e602052816040812055335af1611a78612f81565b5015611a915760015f5160206132885f395f51905f5255005b6312171d8360e31b5f5260045ffd5b630686827b60e51b5f5260045ffd5b346103bf5760603660031901126103bf5760043560048110156103bf57611ad4612da7565b611adc612db7565b90611ae5613140565b611aed613156565b60035491611afa83612ec0565b60035560405190611b0a82612f1e565b611b148583612f75565b60ff6020830193169485845260ff60408401921680835260608401965f885260808501945f865260a08101965f885260c08201338152895f52600f60205260405f2092519a60048c1015611c70576001600160801b038b9a7fa5ed7071e94fc7abf9f76ee419fd4bf08842b1fdf3ab05ff4c13e1460c96b6d79a611be260209f611c279560ff9160609e60019a8462ff000061ff008f54935160081b16935160101b1693169062ffffff19161717178a555116889063ff00000082549160181b169063ff0000001916179055565b518654915174ffffffffffffffffffffffffffffffffff000000001990921690151560201b64ff000000001617911660281b65010000000000600160a81b0316178455565b818060a01b0390511691019060018060a01b03166bffffffffffffffffffffffff60a01b825416179055611c5e6040518094612d6a565b878301526040820152a2604051908152f35b634e487b7160e01b5f52602160045260245ffd5b346103bf57611c9236612df3565b90611c9b613140565b611ca3613170565b825f52600f60205260405f2091825460ff8160081c1615610cb25760ff8160201c166115e95781611d1c575b50505064010000000064ff00000000198254161790557f5384e218cbdece85de092844ed6d67afd282a332b4e2dcf3c8ea4a88fa96d2c15f80a260015f5160206132885f395f51905f5255005b816001600160801b03611d329260281c1661302c565b905f5b818110611d425750611ccf565b805f80808087611d58610dd56001988a8d612ff5565b5af150611d63612f81565b5001611d35565b346103bf575f3660031901126103bf57611d82613140565b5f5460ff811615611dbf5760ff19165f557f5db9ee0a495bf2e6ff9c91a7834c1ba4fdd244a5e8aa4e537bd38aeae4b073aa6020604051338152a1005b638dfc202b60e01b5f5260045ffd5b346103bf5760203660031901126103bf576004355f52600960205260405f20604051806020835491828152019081935f5260205f20905f5b818110611e5e5750505081611e1c910382612f54565b604051918291602083019060208452518091526040830191905f5b818110611e45575050500390f35b8251845285945060209384019390920191600101611e37565b8254845260209093019260019283019201611e06565b346103bf575f3660031901126103bf576020600554604051908152f35b346103bf5760203660031901126103bf576001600160a01b03611eb2612dc7565b165f52600d602052602060018060a01b0360405f205416604051908152f35b346103bf5760603660031901126103bf57611eea612da7565b604435906001600160a01b03821682036103bf576004355f52601160205260ff60405f2091165f5260205260405f209060018060a01b03165f52602052602060ff60405f2054166040519015158152f35b346103bf5760603660031901126103bf576024356001600160401b0381116103bf57611f6b903690600401612d77565b906044356001600160401b0381116103bf57611f8b903690600401612d77565b9091611f95613140565b611f9d613156565b611fa5613170565b6004355f52600760205260405f2090815464ffffffffff8116156103b05764ffffffffff8160281c1643111561079c5760ff8160e81c16610a875760d01c61ffff16156127c9578285036127ba576004355f52600960205260405f2054156127ab576004355f52600a60205260405f2054938460281c9064ffffffffff8216156127ab575f95869586939192905b898510612557575050505050815461207861271061207061ffff61206960ff6001600160801b038760501c169660e01c16612e3b565b1684613019565b04809261304a565b905f905f5b88811061247b575061209a916120929161304a565b600554613115565b600555846120ff575b825460ff60e81b1916600160e81b1783556040805186815261ffff86166020820152600435917f827505de3c85a3348c2a8ea49aceced9d7da614bed7ca662f666d22ff57fde9b91a260015f5160206132885f395f51905f5255005b846121099161302c565b5f955f5b81811061211b5750506120a3565b612129610dd5828487612ff5565b6004355f908152600b6020908152604080832060088084528285205463ffffffff1685529083528184206001600160a01b03861685529092529091206001015461ffff89811694939282901c16841480612472575b156123ee575060018060a01b03811692835f52600c60205260405f2061ffff6121a981835416613057565b1661ffff19825416179055835f52600c6020528361ffff60405f20541692817fd089ae3817ddee138618f664f57b2b3adad059eade6aab821e965c64ac1d10a76020604051878152a261271061220b61ffff612204876131bc565b168a613019565b04904782116123e6575b5f80808481945af1612225612f81565b506123b1575b50508a158061239d575b612306575b505060018601549182612254575b50600191505b0161210d565b5f19830192831161078857826001935f52600f60205260ff60405f205460181c16815f52601160205260405f2060ff82165f5260205260405f20835f5260205260ff60405f205416156122a9575b5050612248565b60207f45e1b9e1211bef7bd7e837aafa9460211306d0ac3999375783f3a2c780071bef91835f526011825260405f2060ff82165f52825260405f20855f52825260405f208760ff19825416179055604051908152a38980806122a2565b909950602064ffffffffff60c460019c5f60018060a01b03600454168c5492604051978896879563280e605560e01b87528c600488015281600435166024880152818116604488015260281c166064860152608485015260a48401525af161236f575b8061223a565b6020813d8211612395575b8161238760209383612f54565b810103126103bf5751612369565b3d915061237a565b506004546001600160a01b03161515612235565b6040519081527f3ab4f323fd531c422d25e49d15ba3d99aefe451f3659533320df5c88255f8a53602060043592a3838c61222b565b479150612215565b6001935060ff1680612452575b612406575b5061224e565b828060a01b0316805f52600c60205260405f2061ffff1981541690557fd089ae3817ddee138618f664f57b2b3adad059eade6aab821e965c64ac1d10a760206040515f8152a289612400565b50828060a01b0381165f52600c60205261ffff60405f20541615156123fb565b5083151561217e565b6001600160a01b03612491610dd5838c89612ff5565b165f908152600d60205260409020546001600160a01b0316806124b8575b5060010161207d565b92906107d08302918383046107d01484151715610788578a612710029461271086048c03610788577f0a721ab4682ceb61c7e4d264ef879fc419a6d764b136e7d96ef54b2053c756736020896125488f998761253b61251c610dd59360019c61302c565b8099895f52600e885260405f20612534838254613115565b9055613115565b9b8a8060a01b0394612ff5565b1693604051908152a3906124af565b919397600497919397355f52600b60205260405f206004355f52600860205263ffffffff8060405f205416165f5260205260405f2061259a610dd58b8d8a612ff5565b60018060a01b03165f5260205260405f209160018301549260ff84161561279e57848b101561278a578a60051b860135601e19873603018112156103bf578601938435946001600160401b0386116103bf578560051b80360360208301136103bf576004355f52600960205260405f20916040519761261c602084018a612f54565b8852602080890192820101903682116103bf579060208f94939201915b818310612777575050505f965f5b63ffffffff8460301c168110612734575060ff8b166126dd575b50505060019062ffff0061ffff87169660081b169062ffff0019161791015561ffff81168084115f146126a25750505095600180985b019391929092612033565b839199939a929a1490816126d3575b506126bf575b600190612697565b976126cb600191612ec0565b9890506126b7565b905015158b6126b1565b9161270a6127239263ffffffff6126fe6001979b96828660301c16906131a8565b519360301c1690612e26565b90549060031b1c185f1960ff8c16610100031b166131f4565b60ff8a1603019490508a8e80612661565b97600163ffffffff9161276561274d8c869798966131a8565b516127588d89612e26565b90549060031b1c186131f4565b61010003019901905092919092612647565b823581528f945060209283019201612639565b634e487b7160e01b5f52603260045260245ffd5b5097915097600190612697565b631769681960e31b5f5260045ffd5b631e63201f60e01b5f5260045ffd5b63dff55bfb60e01b5f5260045ffd5b346103bf5760403660031901126103bf576004356127f4613156565b805f52600760205260405f205464ffffffffff811680156103b057431061288e5760281c64ffffffffff16431161079c575f818152600b60209081526040808320600883528184205463ffffffff1684528252808320338452909152902080548015610a6e57600103610a5f57602435905533907fa3468da6053d953d2f99b56dc9d33479587cf686b2c84ad3b9a9f5ced427b24a5f80a3005b630db52d6360e31b5f5260045ffd5b346103bf5760203660031901126103bf576128b6612fbf565b506004355f52600760205260e060405f20604051906128d482612f1e565b805464ffffffffff8116835261297e602084019264ffffffffff8360281c16845261ffff604086016001600160801b038560501c1681526001600160801b036060880191838760d01c16835264ffffffffff600160808b019661293c60ff8b8f1c1689612f75565b60ff60a08d019a60e81c1615158a5201549860c08b01998a52816040519b51168b52511660208a01525116604088015251166060860152516080850190612d6a565b51151560a08301525160c0820152f35b346103bf5760203660031901126103bf576129a7612fbf565b506004355f52600f60205260e060405f20604051906129c582612f1e565b6001600160801b0381546129dc60ff821685612f75565b602084019260ff8260081c16845260ff60408601818460101c168152816060880191818660181c1683528160808a0195818860201c16151587528860a08c019860281c1688526001808060a01b03910154169860c08b01998a52612a44604051809c51612d6a565b511660208a015251166040880152511660608601525115156080850152511660a0830152516001600160a01b031660c0820152f35b346103bf575f3660031901126103bf57612a91613140565b612a99613170565b6005548015611aa0575f6005555f80808084335af1612ab6612f81565b5015611a91576040519081527f41fdd680478135993bc53fb2ffaf9560951b57ef62ff6badd02b61e018b4f17f60203392a260015f5160206132885f395f51905f5255005b346103bf5760403660031901126103bf5760043560048110156103bf57612b20612d56565b612b28613140565b612b30613156565b60025490612b3d82612ec0565b600255612b5064ffffffffff4316612ece565b90612b5b8183612f02565b9360405190612b6982612f1e565b64ffffffffff8416808352602083019664ffffffffff16875260408301945f8652606084015f81526080850190612ba08583612f75565b5f60a0870181815260c088018281528b835260076020526040909220975188549c5169ffffffffffffffffffff19909d1664ffffffffff9091161760289c909c1b64ffffffffff60281b169b909b1787559997518654600160501b600160d01b03191660509190911b600160501b600160d01b031617865551855461ffff60d01b191660d09190911b61ffff60d01b1617855551916004831015611c70576001600160801b03612cc27f8b8a4da7999b0ea65a7f06e17b6eb0550bdd9bcd187301af420cd790f90b671197608097600160209d8d9c64ffffffffff9984549060ff60e01b9060e01b169060ff60e01b191617845551151583549060ff60e81b9060e81b169060ff60e81b191617835551910155612cbc87612e72565b94612f02565b92612cd06040518097612d6a565b16898501526040840152166060820152a2604051908152f35b346103bf5760203660031901126103bf5760043560048110156103bf57612d11602091612e72565b6001600160801b0360405191168152f35b346103bf5760203660031901126103bf5760043560048110156103bf57612d4a602091612e3b565b61ffff60405191168152f35b6024359064ffffffffff821682036103bf57565b906004821015611c705752565b9181601f840112156103bf578235916001600160401b0383116103bf576020808501948460051b0101116103bf57565b6024359060ff821682036103bf57565b6044359060ff821682036103bf57565b600435906001600160a01b03821682036103bf57565b602435906001600160a01b03821682036103bf57565b9060406003198301126103bf5760043591602435906001600160401b0382116103bf57612e2291600401612d77565b9091565b805482101561278a575f5260205f2001905f90565b6004811015611c70578015612e6b5760018114612e6457600214612e5e5760c890565b61012c90565b5061019090565b506101f490565b6004811015611c70578015612eb45760018114612ea857600214612e9c57670de0b6b3a764000090565b67016345785d8a000090565b50662386f26fc1000090565b5066038d7ea4c6800090565b5f1981146107885760010190565b64ffffffffff60649116019064ffffffffff821161078857565b64ffffffffff60019116019064ffffffffff821161078857565b9064ffffffffff8091169116019064ffffffffff821161078857565b60e081019081106001600160401b03821117610c8f57604052565b606081019081106001600160401b03821117610c8f57604052565b90601f801991011681019081106001600160401b03821117610c8f57604052565b6004821015611c705752565b3d15612fba573d906001600160401b038211610c8f5760405191612faf601f8201601f191660200184612f54565b82523d5f602084013e565b606090565b60405190612fcc82612f1e565b5f60c0838281528260208201528260408201528260608201528260808201528260a08201520152565b919081101561278a5760051b0190565b356001600160a01b03811681036103bf5790565b8181029291811591840414171561078857565b8115613036570490565b634e487b7160e01b5f52601260045260245ffd5b9190820391821161078857565b61ffff1661ffff81146107885760010190565b64ffffffffff1660ff039064ffffffffff821161078857565b9064ffffffffff8091169116039064ffffffffff821161078857565b8054600160401b811015610c8f576130bc91600182018155612e26565b8154905f199060031b1b19169055565b906001600160801b03809116911601906001600160801b03821161078857565b602080825281018390526001600160fb1b0383116103bf5760409260051b809284830137010190565b9190820180921161078857565b6040519061312f82612f39565b5f6040838281528260208201520152565b5f5460081c6001600160a01b0316330361135d57565b60ff5f541661316157565b63d93c066560e01b5f5260045ffd5b60025f5160206132885f395f51905f5254146131995760025f5160206132885f395f51905f5255565b633ee5aeb560e01b5f5260045ffd5b805182101561278a5760209160051b010190565b61ffff1660058110156131ed5760038110156131e657600211156131e05761271090565b612af890565b50612ee090565b50613a9890565b61323e6132096001600160401b038316613242565b61321e6001600160401b038460401c16613242565b016132346001600160401b038460801c16613242565b019160c01c613242565b0190565b670101010101010101670f0f0f0f0f0f0f0f60ff926755555555555555558160011c169003673333333333333333808260021c169116018060041c01160260381c169056fe9b779b17422d0df92223018b32b4d1fa46e071723d6817e2486d003becc55f00a264697066735822122076528b4d302ae4d6b223b2d49bf53989e06a5442baf0291a94e3a3c51caf110564736f6c634300081c0033","linkReferences":{}},"methodIdentifiers":{"acceptOwnership()":"79ba5097","addArenaToTournament(uint256,uint256,uint8)":"82df8f4b","advanceTournamentRound(uint256)":"66df9056","arenaEpoch(uint256)":"de4241be","arenas(uint256)":"84f4319c","commitPrediction(uint256,bytes32)":"1b14886f","computeCommitHash(uint256,address,bytes32,uint256[])":"813fb92b","createArena(uint8,uint40)":"124a7b0b","createTournament(uint8,uint8,uint8)":"44118d0a","depositTournamentPot(uint256)":"5a438492","emergencyWithdraw(uint256,address[])":"820568fd","finalizeArena(uint256,address[],uint256[][])":"21ce85e2","finalizeTournament(uint256,address[])":"4240d985","getArena(uint256)":"1a8425b4","getEntryFee(uint8)":"0d4158c2","getOracleState(uint256)":"f36dd93e","getPlayerState(uint256,address)":"b20bfbb9","getPriceTape(uint256)":"3e105dc5","getRakeBps(uint8)":"048416b6","getTournament(uint256)":"1a5bd7fc","godStreak(address)":"6918dca2","highlightsNFT()":"76831510","joinArena(uint256)":"f6b3a00a","nextArenaId()":"cf8753b2","nextTournamentId()":"852efc3d","oracle()":"7dc0d1d0","oracleState(uint256)":"719299ac","owner()":"8da5cb5b","pause()":"8456cb59","paused()":"5c975abb","pendingOwner()":"e30c3978","recordTick(uint256)":"7f61e6cf","recordTicks(uint256,uint40)":"509ae940","referrer(address)":"2cf003c2","referrerBalance(address)":"c4cfd698","renounceOwnership()":"715018a6","resetArena(uint256,uint40)":"b1e9c617","revealPrediction(uint256,uint256[],bytes32)":"8c705751","setHighlightsNFT(address)":"7153ce54","setOracle(address)":"7adbf973","setReferrer(address)":"a18a7bfc","tournamentQualified(uint256,uint8,address)":"28a23334","tournamentRoundArenas(uint256,uint8,uint256)":"a3c65860","tournaments(uint256)":"7503e1b7","transferOwnership(address)":"f2fde38b","treasuryBalance()":"313dab20","unpause()":"3f4ba83a","withdrawReferralEarnings()":"451459f2","withdrawTreasury()":"166bab95"},"id":42}