{"abi":[{"type":"constructor","inputs":[],"stateMutability":"nonpayable"},{"type":"receive","stateMutability":"payable"},{"type":"function","name":"addArenaToTournament","inputs":[{"name":"tournamentId","type":"uint256","internalType":"uint256"},{"name":"arenaId","type":"uint256","internalType":"uint256"},{"name":"round","type":"uint8","internalType":"uint8"}],"outputs":[],"stateMutability":"nonpayable"},{"type":"function","name":"advanceTournamentRound","inputs":[{"name":"tournamentId","type":"uint256","internalType":"uint256"}],"outputs":[],"stateMutability":"nonpayable"},{"type":"function","name":"arenas","inputs":[{"name":"","type":"uint256","internalType":"uint256"}],"outputs":[{"name":"startBlock","type":"uint40","internalType":"uint40"},{"name":"endBlock","type":"uint40","internalType":"uint40"},{"name":"pot","type":"uint128","internalType":"uint128"},{"name":"playerCount","type":"uint16","internalType":"uint16"},{"name":"tier","type":"uint8","internalType":"enum ArenaEngine.Tier"},{"name":"finalized","type":"bool","internalType":"bool"},{"name":"tournamentId","type":"uint256","internalType":"uint256"}],"stateMutability":"view"},{"type":"function","name":"commitPrediction","inputs":[{"name":"arenaId","type":"uint256","internalType":"uint256"},{"name":"commitHash","type":"bytes32","internalType":"bytes32"}],"outputs":[],"stateMutability":"nonpayable"},{"type":"function","name":"commits","inputs":[{"name":"","type":"uint256","internalType":"uint256"},{"name":"","type":"address","internalType":"address"}],"outputs":[{"name":"","type":"bytes32","internalType":"bytes32"}],"stateMutability":"view"},{"type":"function","name":"computeCommitHash","inputs":[{"name":"arenaId","type":"uint256","internalType":"uint256"},{"name":"player","type":"address","internalType":"address"},{"name":"salt","type":"bytes32","internalType":"bytes32"},{"name":"bitPackedPredictions","type":"uint256","internalType":"uint256"}],"outputs":[{"name":"","type":"bytes32","internalType":"bytes32"}],"stateMutability":"pure"},{"type":"function","name":"createArena","inputs":[{"name":"tier","type":"uint8","internalType":"enum ArenaEngine.Tier"},{"name":"durationInBlocks","type":"uint40","internalType":"uint40"}],"outputs":[{"name":"arenaId","type":"uint256","internalType":"uint256"}],"stateMutability":"nonpayable"},{"type":"function","name":"createTournament","inputs":[{"name":"tier","type":"uint8","internalType":"enum ArenaEngine.Tier"},{"name":"roundCount","type":"uint8","internalType":"uint8"},{"name":"arenasPerRound","type":"uint8","internalType":"uint8"}],"outputs":[{"name":"tournamentId","type":"uint256","internalType":"uint256"}],"stateMutability":"nonpayable"},{"type":"function","name":"depositTournamentPot","inputs":[{"name":"tournamentId","type":"uint256","internalType":"uint256"}],"outputs":[],"stateMutability":"payable"},{"type":"function","name":"emergencyWithdraw","inputs":[{"name":"arenaId","type":"uint256","internalType":"uint256"}],"outputs":[],"stateMutability":"nonpayable"},{"type":"function","name":"finalizeArena","inputs":[{"name":"arenaId","type":"uint256","internalType":"uint256"}],"outputs":[],"stateMutability":"nonpayable"},{"type":"function","name":"finalizeTournament","inputs":[{"name":"tournamentId","type":"uint256","internalType":"uint256"}],"outputs":[],"stateMutability":"nonpayable"},{"type":"function","name":"getArena","inputs":[{"name":"arenaId","type":"uint256","internalType":"uint256"}],"outputs":[{"name":"","type":"tuple","internalType":"struct ArenaEngine.Arena","components":[{"name":"startBlock","type":"uint40","internalType":"uint40"},{"name":"endBlock","type":"uint40","internalType":"uint40"},{"name":"pot","type":"uint128","internalType":"uint128"},{"name":"playerCount","type":"uint16","internalType":"uint16"},{"name":"tier","type":"uint8","internalType":"enum ArenaEngine.Tier"},{"name":"finalized","type":"bool","internalType":"bool"},{"name":"tournamentId","type":"uint256","internalType":"uint256"}]}],"stateMutability":"view"},{"type":"function","name":"getEntryFee","inputs":[{"name":"tier","type":"uint8","internalType":"enum ArenaEngine.Tier"}],"outputs":[{"name":"","type":"uint128","internalType":"uint128"}],"stateMutability":"pure"},{"type":"function","name":"getPlayers","inputs":[{"name":"arenaId","type":"uint256","internalType":"uint256"}],"outputs":[{"name":"","type":"address[]","internalType":"address[]"}],"stateMutability":"view"},{"type":"function","name":"getRakeBps","inputs":[{"name":"tier","type":"uint8","internalType":"enum ArenaEngine.Tier"}],"outputs":[{"name":"","type":"uint16","internalType":"uint16"}],"stateMutability":"pure"},{"type":"function","name":"getStreakMultiplier","inputs":[{"name":"streak","type":"uint16","internalType":"uint16"}],"outputs":[{"name":"","type":"uint16","internalType":"uint16"}],"stateMutability":"pure"},{"type":"function","name":"getTournament","inputs":[{"name":"tournamentId","type":"uint256","internalType":"uint256"}],"outputs":[{"name":"","type":"tuple","internalType":"struct ArenaEngine.Tournament","components":[{"name":"tier","type":"uint8","internalType":"enum ArenaEngine.Tier"},{"name":"roundCount","type":"uint8","internalType":"uint8"},{"name":"arenasPerRound","type":"uint8","internalType":"uint8"},{"name":"currentRound","type":"uint8","internalType":"uint8"},{"name":"finalized","type":"bool","internalType":"bool"},{"name":"pot","type":"uint128","internalType":"uint128"},{"name":"creator","type":"address","internalType":"address"}]}],"stateMutability":"view"},{"type":"function","name":"getTournamentQualifiedPlayers","inputs":[{"name":"tournamentId","type":"uint256","internalType":"uint256"},{"name":"round","type":"uint8","internalType":"uint8"}],"outputs":[{"name":"","type":"address[]","internalType":"address[]"}],"stateMutability":"view"},{"type":"function","name":"getTournamentRoundArenas","inputs":[{"name":"tournamentId","type":"uint256","internalType":"uint256"},{"name":"round","type":"uint8","internalType":"uint8"}],"outputs":[{"name":"","type":"uint256[]","internalType":"uint256[]"}],"stateMutability":"view"},{"type":"function","name":"godStreak","inputs":[{"name":"","type":"address","internalType":"address"}],"outputs":[{"name":"","type":"uint16","internalType":"uint16"}],"stateMutability":"view"},{"type":"function","name":"highlightsNFT","inputs":[],"outputs":[{"name":"","type":"address","internalType":"address"}],"stateMutability":"view"},{"type":"function","name":"joinArena","inputs":[{"name":"arenaId","type":"uint256","internalType":"uint256"}],"outputs":[],"stateMutability":"payable"},{"type":"function","name":"joined","inputs":[{"name":"","type":"uint256","internalType":"uint256"},{"name":"","type":"address","internalType":"address"}],"outputs":[{"name":"","type":"bool","internalType":"bool"}],"stateMutability":"view"},{"type":"function","name":"nextArenaId","inputs":[],"outputs":[{"name":"","type":"uint256","internalType":"uint256"}],"stateMutability":"view"},{"type":"function","name":"nextTournamentId","inputs":[],"outputs":[{"name":"","type":"uint256","internalType":"uint256"}],"stateMutability":"view"},{"type":"function","name":"owner","inputs":[],"outputs":[{"name":"","type":"address","internalType":"address"}],"stateMutability":"view"},{"type":"function","name":"pause","inputs":[],"outputs":[],"stateMutability":"nonpayable"},{"type":"function","name":"paused","inputs":[],"outputs":[{"name":"","type":"bool","internalType":"bool"}],"stateMutability":"view"},{"type":"function","name":"priceTapes","inputs":[{"name":"","type":"uint256","internalType":"uint256"}],"outputs":[{"name":"","type":"bytes","internalType":"bytes"}],"stateMutability":"view"},{"type":"function","name":"referrer","inputs":[{"name":"","type":"address","internalType":"address"}],"outputs":[{"name":"","type":"address","internalType":"address"}],"stateMutability":"view"},{"type":"function","name":"referrerBalance","inputs":[{"name":"","type":"address","internalType":"address"}],"outputs":[{"name":"","type":"uint256","internalType":"uint256"}],"stateMutability":"view"},{"type":"function","name":"revealPrediction","inputs":[{"name":"arenaId","type":"uint256","internalType":"uint256"},{"name":"bitPackedPredictions","type":"uint256","internalType":"uint256"},{"name":"salt","type":"bytes32","internalType":"bytes32"}],"outputs":[],"stateMutability":"nonpayable"},{"type":"function","name":"reveals","inputs":[{"name":"","type":"uint256","internalType":"uint256"},{"name":"","type":"address","internalType":"address"}],"outputs":[{"name":"","type":"uint256","internalType":"uint256"}],"stateMutability":"view"},{"type":"function","name":"scores","inputs":[{"name":"","type":"uint256","internalType":"uint256"},{"name":"","type":"address","internalType":"address"}],"outputs":[{"name":"","type":"uint256","internalType":"uint256"}],"stateMutability":"view"},{"type":"function","name":"setHighlightsNFT","inputs":[{"name":"_nft","type":"address","internalType":"address"}],"outputs":[],"stateMutability":"nonpayable"},{"type":"function","name":"setReferrer","inputs":[{"name":"_referrer","type":"address","internalType":"address"}],"outputs":[],"stateMutability":"nonpayable"},{"type":"function","name":"submitPriceTape","inputs":[{"name":"arenaId","type":"uint256","internalType":"uint256"},{"name":"packedPriceTape","type":"bytes","internalType":"bytes"}],"outputs":[],"stateMutability":"nonpayable"},{"type":"function","name":"tournamentQualified","inputs":[{"name":"","type":"uint256","internalType":"uint256"},{"name":"","type":"uint8","internalType":"uint8"},{"name":"","type":"address","internalType":"address"}],"outputs":[{"name":"","type":"bool","internalType":"bool"}],"stateMutability":"view"},{"type":"function","name":"tournamentRoundArenas","inputs":[{"name":"","type":"uint256","internalType":"uint256"},{"name":"","type":"uint8","internalType":"uint8"},{"name":"","type":"uint256","internalType":"uint256"}],"outputs":[{"name":"","type":"uint256","internalType":"uint256"}],"stateMutability":"view"},{"type":"function","name":"tournaments","inputs":[{"name":"","type":"uint256","internalType":"uint256"}],"outputs":[{"name":"tier","type":"uint8","internalType":"enum ArenaEngine.Tier"},{"name":"roundCount","type":"uint8","internalType":"uint8"},{"name":"arenasPerRound","type":"uint8","internalType":"uint8"},{"name":"currentRound","type":"uint8","internalType":"uint8"},{"name":"finalized","type":"bool","internalType":"bool"},{"name":"pot","type":"uint128","internalType":"uint128"},{"name":"creator","type":"address","internalType":"address"}],"stateMutability":"view"},{"type":"function","name":"treasuryBalance","inputs":[],"outputs":[{"name":"","type":"uint256","internalType":"uint256"}],"stateMutability":"view"},{"type":"function","name":"unpause","inputs":[],"outputs":[],"stateMutability":"nonpayable"},{"type":"function","name":"withdrawReferralEarnings","inputs":[],"outputs":[],"stateMutability":"nonpayable"},{"type":"function","name":"withdrawTreasury","inputs":[],"outputs":[],"stateMutability":"nonpayable"},{"type":"event","name":"ArenaCreated","inputs":[{"name":"arenaId","type":"uint256","indexed":true,"internalType":"uint256"},{"name":"tier","type":"uint8","indexed":false,"internalType":"enum ArenaEngine.Tier"},{"name":"entryFee","type":"uint128","indexed":false,"internalType":"uint128"},{"name":"startBlock","type":"uint40","indexed":false,"internalType":"uint40"},{"name":"endBlock","type":"uint40","indexed":false,"internalType":"uint40"}],"anonymous":false},{"type":"event","name":"ArenaFinalized","inputs":[{"name":"arenaId","type":"uint256","indexed":true,"internalType":"uint256"}],"anonymous":false},{"type":"event","name":"EmergencyWithdraw","inputs":[{"name":"arenaId","type":"uint256","indexed":true,"internalType":"uint256"},{"name":"amount","type":"uint256","indexed":false,"internalType":"uint256"}],"anonymous":false},{"type":"event","name":"GodStreakUpdate","inputs":[{"name":"player","type":"address","indexed":true,"internalType":"address"},{"name":"streak","type":"uint16","indexed":false,"internalType":"uint16"}],"anonymous":false},{"type":"event","name":"HighlightsNFTSet","inputs":[{"name":"nft","type":"address","indexed":true,"internalType":"address"}],"anonymous":false},{"type":"event","name":"Paused","inputs":[{"name":"account","type":"address","indexed":false,"internalType":"address"}],"anonymous":false},{"type":"event","name":"PlayerJoined","inputs":[{"name":"arenaId","type":"uint256","indexed":true,"internalType":"uint256"},{"name":"player","type":"address","indexed":true,"internalType":"address"}],"anonymous":false},{"type":"event","name":"PotDistributed","inputs":[{"name":"arenaId","type":"uint256","indexed":true,"internalType":"uint256"},{"name":"winner","type":"address","indexed":true,"internalType":"address"},{"name":"amount","type":"uint256","indexed":false,"internalType":"uint256"}],"anonymous":false},{"type":"event","name":"PredictionCommitted","inputs":[{"name":"arenaId","type":"uint256","indexed":true,"internalType":"uint256"},{"name":"player","type":"address","indexed":true,"internalType":"address"}],"anonymous":false},{"type":"event","name":"PredictionRevealed","inputs":[{"name":"arenaId","type":"uint256","indexed":true,"internalType":"uint256"},{"name":"player","type":"address","indexed":true,"internalType":"address"},{"name":"predictions","type":"uint256","indexed":false,"internalType":"uint256"}],"anonymous":false},{"type":"event","name":"ReferralPaid","inputs":[{"name":"referrer","type":"address","indexed":true,"internalType":"address"},{"name":"player","type":"address","indexed":true,"internalType":"address"},{"name":"amount","type":"uint256","indexed":false,"internalType":"uint256"}],"anonymous":false},{"type":"event","name":"ReferrerSet","inputs":[{"name":"player","type":"address","indexed":true,"internalType":"address"},{"name":"referrer","type":"address","indexed":true,"internalType":"address"}],"anonymous":false},{"type":"event","name":"TournamentArenaAdded","inputs":[{"name":"tournamentId","type":"uint256","indexed":true,"internalType":"uint256"},{"name":"round","type":"uint8","indexed":false,"internalType":"uint8"},{"name":"arenaId","type":"uint256","indexed":false,"internalType":"uint256"}],"anonymous":false},{"type":"event","name":"TournamentCreated","inputs":[{"name":"tournamentId","type":"uint256","indexed":true,"internalType":"uint256"},{"name":"tier","type":"uint8","indexed":false,"internalType":"enum ArenaEngine.Tier"},{"name":"roundCount","type":"uint8","indexed":false,"internalType":"uint8"},{"name":"arenasPerRound","type":"uint8","indexed":false,"internalType":"uint8"}],"anonymous":false},{"type":"event","name":"TournamentFinalized","inputs":[{"name":"tournamentId","type":"uint256","indexed":true,"internalType":"uint256"},{"name":"winner","type":"address","indexed":true,"internalType":"address"},{"name":"prize","type":"uint256","indexed":false,"internalType":"uint256"}],"anonymous":false},{"type":"event","name":"TournamentPlayerQualified","inputs":[{"name":"tournamentId","type":"uint256","indexed":true,"internalType":"uint256"},{"name":"round","type":"uint8","indexed":false,"internalType":"uint8"},{"name":"player","type":"address","indexed":true,"internalType":"address"}],"anonymous":false},{"type":"event","name":"TreasuryWithdrawn","inputs":[{"name":"to","type":"address","indexed":true,"internalType":"address"},{"name":"amount","type":"uint256","indexed":false,"internalType":"uint256"}],"anonymous":false},{"type":"event","name":"Unpaused","inputs":[{"name":"account","type":"address","indexed":false,"internalType":"address"}],"anonymous":false},{"type":"error","name":"AlreadyCommitted","inputs":[]},{"type":"error","name":"AlreadyJoined","inputs":[]},{"type":"error","name":"ArenaAlreadyFinalized","inputs":[]},{"type":"error","name":"ArenaAlreadyStarted","inputs":[]},{"type":"error","name":"ArenaNotEnded","inputs":[]},{"type":"error","name":"ArenaNotFound","inputs":[]},{"type":"error","name":"ArenaNotStarted","inputs":[]},{"type":"error","name":"ArenaNotStuck","inputs":[]},{"type":"error","name":"EnforcedPause","inputs":[]},{"type":"error","name":"ExpectedPause","inputs":[]},{"type":"error","name":"InsufficientFee","inputs":[]},{"type":"error","name":"InvalidReveal","inputs":[]},{"type":"error","name":"InvalidRound","inputs":[]},{"type":"error","name":"NoPlayers","inputs":[]},{"type":"error","name":"NotJoined","inputs":[]},{"type":"error","name":"NotOwner","inputs":[]},{"type":"error","name":"NotQualified","inputs":[]},{"type":"error","name":"NothingToWithdraw","inputs":[]},{"type":"error","name":"ReferrerAlreadySet","inputs":[]},{"type":"error","name":"SelfReferral","inputs":[]},{"type":"error","name":"TournamentAlreadyFinalized","inputs":[]},{"type":"error","name":"TournamentNotFound","inputs":[]},{"type":"error","name":"TransferFailed","inputs":[]},{"type":"error","name":"ZeroAddress","inputs":[]}],"bytecode":{"object":"0x60808060405234602757600380546001600160a01b03191633179055612fce908161002c8239f35b5f80fdfe6080604052600436101561001a575b3615610018575f80fd5b005b5f3560e01c8063048416b6146102e95780630d0def7e146102e45780630d4158c2146102df578063124a7b0b146102da578063165d059e146102d5578063166bab95146102d05780631a5bd7fc146102cb5780631a8425b4146102c65780631b14886f146102c15780631ba619a4146102bc57806328a23334146102b75780632c59a0da146102b25780632cbba7e6146102ad5780632cf003c2146102a8578063313dab20146102a35780633f4ba83a1461029e57806344118d0a14610299578063451459f214610294578063460e20491461028f5780634ef148881461028a5780635312ea8e146102855780635a438492146102805780635c975abb1461027b57806366df9056146102765780636918dca2146102715780637153ce541461026c5780637503e1b71461026757806376831510146102625780637a07b6741461025d5780637e2606371461025857806382724b6c1461025357806382df8f4b1461024e5780638456cb591461024957806384f4319c14610244578063852efc3d1461023f578063885d68a81461023a5780638da5cb5b146102355780639a4ea4cd14610230578063a18a7bfc1461022b578063a3c6586014610226578063bea5fcc514610221578063c4cfd6981461021c578063cf8753b214610217578063e991a864146102125763f6b3a00a0361000e57612342565b6122d9565b6122bc565b612284565b612241565b6121df565b6120e4565b612058565b611ff7565b611fb6565b611f99565b611f2e565b611e7e565b611d70565b6116fc565b6116a6565b611538565b611510565b6114a2565b6113cf565b611393565b611314565b6112f3565b611263565b61110a565b6110c0565b611053565b61100a565b610f25565b610eb7565b610e9a565b610e5a565b610e30565b610d9b565b610cf5565b610b03565b610a06565b61093c565b6107f8565b6106c9565b610509565b6103c3565b61038f565b610330565b610301565b6004359060048210156102fd57565b5f80fd5b346102fd5760203660031901126102fd57602061032461031f6102ee565b6124db565b61ffff60405191168152f35b346102fd5760403660031901126102fd5760243560043567ffffffffffffffff82116102fd57366023830112156102fd5781600401359067ffffffffffffffff82116102fd5736602483850101116102fd576024610018930190612525565b346102fd5760203660031901126102fd5760206103b26103ad6102ee565b612692565b6001600160801b0360405191168152f35b346102fd5760403660031901126102fd576103dc6102ee565b60243564ffffffffff811681036102fd576003546001600160a01b031633036104fa576104f69161040b612c87565b7f8b8a4da7999b0ea65a7f06e17b6eb0550bdd9bcd187301af420cd790f90b671160015492839261044361043e85612707565b600155565b6104e361045664ffffffffff4316612715565b6104d661046284612692565b946104d0610470828561274a565b61049461047b612766565b64ffffffffff871681529164ffffffffff166020830152565b5f60408201525f60608201526104ad8760808301612775565b5f60a08201525f60c08201526104cb8a5f52600660205260405f2090565b6127a5565b8261274a565b90604051948594856128a3565b0390a26040519081529081906020820190565b0390f35b6330cd747160e01b5f5260045ffd5b346102fd5760603660031901126102fd5760243560043560443561052b612c87565b61053d825f52600660205260405f2090565b5464ffffffffff8116156106ba57610565602882901c64ffffffffff165b64ffffffffff1690565b4311156106ab5760e81c60ff1661069c576105ae6105aa6105a3610591855f52600a60205260405f2090565b335f9081526020919091526040902090565b5460ff1690565b1590565b61068d57604051610602816105f48660208301953388889290916074949284526bffffffffffffffffffffffff199060601b166020840152603483015260548201520190565b03601f1981018352826115e6565b5190206106303361061b845f52600860205260405f2090565b9060018060a01b03165f5260205260405f2090565b540361067e578161064d3361061b845f52600960205260405f2090565b5560405191825233917f784f66cbd17324f50975d0f7346c2acc7a0c29b06c56e2b3d478f8581b06b64990602090a3005b639ea6d12760e01b5f5260045ffd5b63c394a43360e01b5f5260045ffd5b63531502ff60e01b5f5260045ffd5b633ac17ab760e21b5f5260045ffd5b6307e7eda560e51b5f5260045ffd5b346102fd575f3660031901126102fd576003546001600160a01b031633036104fa57600554801561074b575f6005555f80808084335af16107086128da565b501561073c576040519081527f41fdd680478135993bc53fb2ffaf9560951b57ef62ff6badd02b61e018b4f17f60203392a2005b6312171d8360e31b5f5260045ffd5b630686827b60e51b5f5260045ffd5b6004111561076457565b634e487b7160e01b5f52602160045260245ffd5b9060048210156107645752565b6107f69092919260c08060e083019561079f848251610778565b60ff602082015116602085015260ff604082015116604085015260ff60608201511660608501526080810151151560808501526001600160801b0360a08201511660a0850152015191019060018060a01b03169052565b565b346102fd5760203660031901126102fd57600435610814612919565b505f5260106020526104f660405f206108c36108b3600160405193610838856115c5565b6108a5610895825461084d60ff821689612775565b60ff600882901c811660208a0152601082901c811660408a0152601882901c166060890152610886602082901c60ff16151560808a0152565b60281c6001600160801b031690565b6001600160801b031660a0870152565b01546001600160a01b031690565b6001600160a01b031660c0830152565b60405191829182610785565b91909160c08060e083019464ffffffffff815116845264ffffffffff60208201511660208501526001600160801b03604082015116604085015261ffff606082015116606085015261092960808201516080860190610778565b60a0810151151560a08501520151910152565b346102fd5760203660031901126102fd57600435610958612919565b505f5260066020526104f660405f20600160405191610976836115c5565b6109f36109ea825464ffffffffff8116865264ffffffffff8160281c1660208701526109bf6109af826001600160801b039060501c1690565b6001600160801b03166040880152565b61ffff60d082901c1660608701526109e160e082901c60ff1660808801612775565b60e81c60ff1690565b151560a0850152565b015460c0820152604051918291826108cf565b346102fd5760403660031901126102fd57600435602435610a25612c87565b610a37825f52600660205260405f2090565b5464ffffffffff811680156106ba5764ffffffffff164310610af457610a669060281c64ffffffffff1661055b565b43116106ab57610a876105aa6105a3610591855f52600a60205260405f2090565b61068d57610aa13361061b845f52600860205260405f2090565b54610ae557610abc3361061b845f52600860205260405f2090565b5533907fa3468da6053d953d2f99b56dc9d33479587cf686b2c84ad3b9a9f5ced427b24a5f80a3005b6317fd8aab60e31b5f5260045ffd5b630db52d6360e31b5f5260045ffd5b346102fd5760203660031901126102fd576004356003546001600160a01b031633036104fa57610b3b815f52601060205260405f2090565b8054909160ff600883901c168015610c9a57602083901c60ff16610c8b57610b65610b879161294f565b610b77835f52601360205260405f2090565b9060ff165f5260205260405f2090565b9081549283610ba6575b845464ff000000001916640100000000178555005b83610bcd610bc1610bd2936001600160801b039060281c1690565b6001600160801b031690565b612961565b915f5b848110610be25750610b91565b805f80808088610c0c610bf76001988a6121c5565b905460039190911b1c6001600160a01b031690565b5af1610c166128da565b50610c22575b01610bd5565b610c4d610c2f82856121c5565b905460a085901b8590039260039290921b1c6001600160a01b031690565b16847fcd5519d1592919f2c62aab2d2cf839d435a03371a12798d4d35542f466d2730c60405180610c838a829190602083019252565b0390a3610c1c565b634a6d421760e01b5f5260045ffd5b6303361a2560e01b5f5260045ffd5b6024359060ff821682036102fd57565b6044359060ff821682036102fd57565b600435906001600160a01b03821682036102fd57565b602435906001600160a01b03821682036102fd57565b346102fd5760603660031901126102fd57600435610d11610ca9565b60443591906001600160a01b03831683036102fd5760209261061b610d4d9260ff945f526012865260405f209060ff165f5260205260405f2090565b54166040519015158152f35b60206040818301928281528451809452019201905f5b818110610d7c5750505090565b82516001600160a01b0316845260209384019390920191600101610d6f565b346102fd5760403660031901126102fd57610dd6600435610dba610ca9565b905f52601360205260405f209060ff165f5260205260405f2090565b6040519081602082549182815201915f5260205f20905f5b818110610e11576104f685610e05818703826115e6565b60405191829182610d59565b82546001600160a01b0316845260209093019260019283019201610dee565b346102fd5760203660031901126102fd5760043561ffff811681036102fd57610324602091612ca1565b346102fd5760203660031901126102fd576001600160a01b03610e7b610cc9565b165f52600e602052602060018060a01b0360405f205416604051908152f35b346102fd575f3660031901126102fd576020600554604051908152f35b346102fd575f3660031901126102fd576003546001600160a01b031633036104fa575f5460ff811615610f165760ff19165f557f5db9ee0a495bf2e6ff9c91a7834c1ba4fdd244a5e8aa4e537bd38aeae4b073aa6020604051338152a1005b638dfc202b60e01b5f5260045ffd5b346102fd5760603660031901126102fd57610f3e6102ee565b610f46610ca9565b610f4e610cb9565b6003546001600160a01b031633036104fa577fa5ed7071e94fc7abf9f76ee419fd4bf08842b1fdf3ab05ff4c13e1460c96b6d76104e3926104f694610f91612c87565b600254948594610fa086612707565b600255610ffe604051610fb2816115c5565b610fbc8582612775565b60ff8681166020830152831660408201525f606082018190526080820181905260a08201523360c0820152610ff9885f52601060205260405f2090565b612997565b60405193849384612ad7565b346102fd575f3660031901126102fd57335f52600f60205260405f2054801561074b575f80808093338252600f602052816040812055335af161104b6128da565b501561073c57005b346102fd5760203660031901126102fd576004355f52600c60205260405f206040519081602082549182815201915f5260205f20905f5b8181106110a1576104f685610e05818703826115e6565b82546001600160a01b031684526020909301926001928301920161108a565b346102fd5760403660031901126102fd5760206111016004356110e1610cdf565b905f526009835260405f209060018060a01b03165f5260205260405f2090565b54604051908152f35b346102fd5760203660031901126102fd576004356003546001600160a01b031633036104fa57611142815f52600660205260405f2090565b805464ffffffffff8116156106ba5760e881901c60ff1661069c5761117461055b602883901c64ffffffffff1661272f565b4310611254576111c2906111939060501c6001600160801b0316610bc1565b82547fffff00ffffff00000000000000000000000000000000ffffffffffffffffffff16600160e81b17909255565b6111d4825f52600c60205260405f2090565b80549081611212575b60405183815284907fb073e6fbd06d7557d2c82f414fee57de28e7fb517ecc0afdd6b1fc57034a9cb89080602081015b0390a2005b61121c8284612961565b905f5b83811061122d5750506111dd565b805f80808087611242610bf76001988a6121c5565b5af15061124d6128da565b500161121f565b630547900f60e11b5f5260045ffd5b60203660031901126102fd576004356003546001600160a01b031633036104fa57805f52601060205260ff60405f205460081c1615610c9a575f52601060205261001860405f206112ca6001600160801b0334166001600160801b03835460281c16612afb565b65010000000000600160a81b0382549160281b169065010000000000600160a81b031916179055565b346102fd575f3660031901126102fd57602060ff5f54166040519015158152f35b346102fd5760203660031901126102fd576004356003546001600160a01b031633036104fa575f52601060205260405f20805460ff8160081c1615610c9a5760ff8160201c16610c8b5760ff9060181c169060ff821461138e576001610018920163ff00000082549160181b169063ff0000001916179055565b6126f3565b346102fd5760203660031901126102fd576001600160a01b036113b4610cc9565b165f52600d602052602061ffff60405f205416604051908152f35b346102fd5760203660031901126102fd576113e8610cc9565b6003546001600160a01b031633036104fa576001600160a01b0316801561144157600480546001600160a01b031916821790557f3881b05a9993314cfe4c48c40eaf8ca7691e1966b1a07041c272c0ef2433d9125f80a2005b63d92e233d60e01b5f5260045ffd5b959160c0959198979460ff6001600160801b03958180946114758c60e081019f610778565b1660208b0152166040890152166060870152151560808601521660a08401526001600160a01b0316910152565b346102fd5760203660031901126102fd576004355f52601060205260405f208054906001808060a01b0391015416906104f660405192826001600160801b03859460281c169060ff8160201c169060ff8160181c169060ff8160101c169060ff808260081c16911688611450565b346102fd575f3660031901126102fd576004546040516001600160a01b039091168152602090f35b346102fd5760403660031901126102fd576020611101600435611559610cdf565b905f52600b835260405f209060018060a01b03165f5260205260405f2090565b90600182811c921680156115a7575b602083101461159357565b634e487b7160e01b5f52602260045260245ffd5b91607f1691611588565b634e487b7160e01b5f52604160045260245ffd5b60e0810190811067ffffffffffffffff8211176115e157604052565b6115b1565b90601f8019910116810190811067ffffffffffffffff8211176115e157604052565b9060405191825f82549261161b84611579565b80845293600181169081156116845750600114611640575b506107f6925003836115e6565b90505f9291925260205f20905f915b8183106116685750509060206107f6928201015f611633565b602091935080600191548385890101520191019091849261164f565b9050602092506107f694915060ff191682840152151560051b8201015f611633565b346102fd5760203660031901126102fd576004355f526007602052602060406116d0815f20611608565b815192839181835280519182918282860152018484015e5f828201840152601f01601f19168101030190f35b346102fd5760203660031901126102fd57600435611718612c87565b61172a815f52600660205260405f2090565b805464ffffffffff811680156106ba5764ffffffffff602883901c1691438310156106ab5760e881901c60ff1661069c5760d01c61ffff1615611d615761178161177c855f52600760205260405f2090565b611608565b80515f90602011611cf3575061179f91602061055b92015193612bb9565b6101008111611cea575b6117bb845f52600c60205260405f2090565b8054915f935f5b848110611c14575050508354611828838361182261181b61181361180d61180661031f6117fc610bc18b6001600160801b039060501c1690565b9960e01c60ff1690565b61ffff1690565b87612b6d565b612710900490565b8095612bac565b93612d04565b5f905f5b848110611bab575081611872575b855460ff60e81b1916600160e81b178655867f6f8f7342fb44607d109f0c9f11fdd34d68c92954d01162ebeb860660c74ce9375f80a2005b9061187c91612961565b925f5b8381101561183a5780611897610bf7600193866121c5565b836118ae8261061b8c5f52600b60205260405f2090565b541480611ba2575b15611b0e576001600160a01b0381165f908152600d602052604090206118fa906118ea6118e5825461ffff1690565b612bd5565b61ffff1661ffff19825416179055565b88846119216119198460018060a01b03165f52600d60205260405f2090565b5461ffff1690565b858060a01b038416807fd089ae3817ddee138618f664f57b2b3adad059eade6aab821e965c64ac1d10a760405180611964868291909161ffff6020820193169052565b0390a283611972838d612e43565b478111611b07575b5f808080848b5af161198a6128da565b50611ad3575b508c91506119a090848c8c612e61565b861480611ab6575b6119dd575b915050849150015490816119c5575b50505b0161187f565b6119d16119d692612b8e565b612ec9565b5f806119bc565b61ffff5f602094611a7864ffffffffff95611a11611a05611a0560045460018060a01b031690565b6001600160a01b031690565b955460405163280e605560e01b81526001600160a01b038c16600482015264ffffffffff9a9098168a166024890152898116604489015260281c9098166064870152921661ffff908116608486015290951660a484015291938492839190829060c4820190565b03925af1611a8a575b848a918a6119ad565b611aaa9060203d8111611aaf575b611aa281836115e6565b810190612be8565b611a81565b503d611a98565b5060045460a088901b889003166001600160a01b031615156119a8565b6040519081527f3ab4f323fd531c422d25e49d15ba3d99aefe451f3659533320df5c88255f8a5390602090a35f8381611990565b504761197a565b6001600160a01b0381165f908152600d60205260409020611b329061180690611919565b611b3d575b506119bf565b6001600160a01b0381165f908152600d60205260409020805461ffff191690557fd089ae3817ddee138618f664f57b2b3adad059eade6aab821e965c64ac1d10a760405191848060a01b03169180611b9981905f602083019252565b0390a25f611b37565b508315156118b6565b85611be2611bc18a5f52600b60205260405f2090565b611bce610bf785896121c5565b60018060a01b03165f5260205260405f2090565b541480611c0b575b611bf7575b60010161182c565b91611c03600191612707565b929050611bef565b50851515611bea565b611c36611c29895f52600960205260405f2090565b611bce610bf784886121c5565b54801580611ccd575b611cc457611c61611c679161010086145f14611ca757845f19915b1816612cd9565b84612bac565b80611c8a611c7d8b5f52600b60205260405f2090565b611bce610bf7868a6121c5565b55868111611c9e575b506001905b016117c2565b95506001611c93565b84611cb46001881b612b8e565b611cbd88612b9c565b1b91611c5a565b50600190611c98565b50611ce3611bc18a5f52600860205260405f2090565b5415611c3f565b506101006117a9565b92939094915f935b8651851015611d4f57600190611d34611d2e611d28611d1a898c612b1b565b516001600160f81b03191690565b60f81c90565b60ff1690565b611d45611d4088612b2c565b612b80565b1b17940193611cfb565b935061179f92955061055b9194612bb9565b63dff55bfb60e01b5f5260045ffd5b346102fd5760603660031901126102fd57600435602435611d8f610cb9565b6003549091906001600160a01b031633036104fa57825f52601060205260ff611dc060405f205460ff9060081c1690565b1615610c9a57611de8611d2e611dde855f52601060205260405f2090565b5460081c60ff1690565b60ff83161015611e6f577f56e6bb4c879645efae5565937ffef47c54eea3379c5279f963f665f5b999be8191611e1d84612bf7565b6001611e31845f52600660205260405f2090565b0155611e5282611e4d83610b77885f52601160205260405f2090565b612c12565b6040805160ff90921682526020820192909252908190810161120d565b6328ad4a9560e21b5f5260045ffd5b346102fd575f3660031901126102fd576003546001600160a01b031633036104fa57611ea8612c87565b600160ff195f5416175f557f62e78cea01bee320cd4e420270b5ea74000d11b0c9f74754ebdbfc544b05a2586020604051338152a1005b9361ffff906001600160801b0360c097939a99989564ffffffffff611f23968160e08b019e168a521660208901521660408701521660608501526080840190610778565b151560a08201520152565b346102fd5760203660031901126102fd576004355f52600660205260405f2060018154910154906104f6604051928260ff859460e81c169060ff8160e01c169061ffff8160d01c16906001600160801b038160501c169064ffffffffff808260281c16911688611edf565b346102fd575f3660031901126102fd576020600254604051908152f35b346102fd5760403660031901126102fd576020611101600435611fd7610cdf565b905f526008835260405f209060018060a01b03165f5260205260405f2090565b346102fd575f3660031901126102fd576003546040516001600160a01b039091168152602090f35b60206040818301928281528451809452019201905f5b8181106120425750505090565b8251845260209384019390920191600101612035565b346102fd5760403660031901126102fd57612093600435612077610ca9565b905f52601160205260405f209060ff165f5260205260405f2090565b6040519081602082549182815201915f5260205f20905f5b8181106120ce576104f6856120c2818703826115e6565b6040519182918261201f565b82548452602090930192600192830192016120ab565b346102fd5760203660031901126102fd576120fd610cc9565b6001600160a01b038116908115611441573382146121a257335f908152600e6020526040902054612136906001600160a01b0316611a05565b61219357335f908152600e6020526040902061216c919080546001600160a01b0319166001600160a01b03909216919091179055565b337f5f7165288eef601591cf549e15ff19ef9060b7f71b9c115be946fa1fe7ebf68a5f80a3005b6312cf907360e31b5f5260045ffd5b632af47b8760e11b5f5260045ffd5b634e487b7160e01b5f52603260045260245ffd5b80548210156121da575f5260205f2001905f90565b6121b1565b346102fd5760603660031901126102fd5760043561221d6121fe610ca9565b604435925f52601160205260405f209060ff165f5260205260405f2090565b80548210156102fd57602091612232916121c5565b90549060031b1c604051908152f35b346102fd5760403660031901126102fd57602060ff610d4d600435612264610cdf565b905f52600a845260405f209060018060a01b03165f5260205260405f2090565b346102fd5760203660031901126102fd576001600160a01b036122a5610cc9565b165f52600f602052602060405f2054604051908152f35b346102fd575f3660031901126102fd576020600154604051908152f35b346102fd5760803660031901126102fd5760206004356122f7610cdf565b60405183810192835260609190911b6bffffffffffffffffffffffff191660208301526044356034830152606435605483015261233781607484016105f4565b519020604051908152f35b60203660031901126102fd57600435612359612c87565b61236b815f52600660205260405f2090565b805464ffffffffff811680156106ba5764ffffffffff164310156124cc576123a16105a3610591855f52600a60205260405f2090565b6124be576001600160801b03906123bd9060e01c60ff16612692565b1634106124b057612488906123ee6123e13361061b865f52600a60205260405f2090565b805460ff19166001179055565b61240933612404855f52600c60205260405f2090565b612c46565b61243b61241f6118e5835461ffff9060d01c1690565b825461ffff60d01b191660d09190911b61ffff60d01b16178255565b6124626001600160801b03341661245d83546001600160801b039060501c1690565b612afb565b8154600160501b600160d01b03191660509190911b600160501b600160d01b0316179055565b33907f87969bc7faf902221a147b95ceba76e011c5efb0339a0a8ee7a2bb82d9cfbbd65f80a3005b62976f7560e21b5f5260045ffd5b621d934160e11b5f5260045ffd5b63159ee25360e21b5f5260045ffd5b6124e48161075a565b801561251e576124f38161075a565b60018114612517576002906125078161075a565b146125115760c890565b61012c90565b5061019090565b506101f490565b600354909291906001600160a01b031633036104fa57825f52600660205260405f205464ffffffffff8116156106ba5760281c64ffffffffff164311156106ab576107f6925f52600760205260405f206125c9565b601f821161258757505050565b5f5260205f20906020601f840160051c830193106125bf575b601f0160051c01905b8181106125b4575050565b5f81556001016125a9565b90915081906125a0565b90929167ffffffffffffffff81116115e1576125ef816125e98454611579565b8461257a565b5f601f821160011461262d57819061261e9394955f92612622575b50508160011b915f199060031b1c19161790565b9055565b013590505f8061260a565b601f19821694612640845f5260205f2090565b915f5b87811061267a575083600195969710612661575b505050811b019055565b01355f19600384901b60f8161c191690555f8080612657565b90926020600181928686013581550194019101612643565b61269b8161075a565b80156126e7576126aa8161075a565b600181146126db576002906126be8161075a565b146126cf57670de0b6b3a764000090565b67016345785d8a000090565b50662386f26fc1000090565b5066038d7ea4c6800090565b634e487b7160e01b5f52601160045260245ffd5b5f19811461138e5760010190565b64ffffffffff60649116019064ffffffffff821161138e57565b64ffffffffff61c3509116019064ffffffffff821161138e57565b9064ffffffffff8091169116019064ffffffffff821161138e57565b604051906107f660e0836115e6565b60048210156107645752565b90600481101561076457815460ff60e01b191660e09190911b60ff60e01b16179055565b9060c060019164ffffffffff81511664ffffffffff1985541617845564ffffffffff60208201511669ffffffffff000000000085549160281b169069ffffffffff0000000000191617845561282d61280760408301516001600160801b031690565b8554600160501b600160d01b03191660509190911b600160501b600160d01b0316178555565b61285b61283f606083015161ffff1690565b855461ffff60d01b191660d09190911b61ffff60d01b16178555565b612872608082015161286c8161075a565b85612781565b61289c61288260a0830151151590565b855460ff60e81b191690151560e81b60ff60e81b16178555565b0151910155565b929364ffffffffff809296956001600160801b036060956128c888608081019b610778565b16602087015216604085015216910152565b3d15612914573d9067ffffffffffffffff82116115e15760405191612909601f8201601f1916602001846115e6565b82523d5f602084013e565b606090565b60405190612926826115c5565b5f60c0838281528260208201528260408201528260608201528260808201528260a08201520152565b60ff5f199116019060ff821161138e57565b811561296b570490565b634e487b7160e01b5f52601260045260245ffd5b9060048110156107645760ff80198354169116179055565b8151600481101561076457612ab660c06107f6946129b76001948661297f565b6129de6129c8602083015160ff1690565b865461ff00191660089190911b61ff0016178655565b612a076129ef604083015160ff1690565b865462ff0000191660109190911b62ff000016178655565b612a32612a18606083015160ff1690565b865463ff000000191660189190911b63ff00000016178655565b612a5e612a426080830151151590565b865464ff00000000191690151560201b64ff0000000016178655565b612aa8612a7560a08301516001600160801b031690565b865474ffffffffffffffffffffffffffffffff0000000000191660289190911b65010000000000600160a81b0316178655565b01516001600160a01b031690565b910180546001600160a01b0319166001600160a01b03909216919091179055565b91604091949360ff8092612aef866060810199610778565b16602085015216910152565b906001600160801b03809116911601906001600160801b03821161138e57565b9081518110156121da570160200190565b908160031b918083046008149015171561138e57565b906107d08202918083046107d0149015171561138e57565b9081612710029161271083040361138e57565b8181029291811591840414171561138e57565b60f8039060f8821161138e57565b5f1981019190821161138e57565b6101000390610100821161138e57565b9190820391821161138e57565b9064ffffffffff8091169116039064ffffffffff821161138e57565b61ffff1661ffff811461138e5760010190565b908160209103126102fd575190565b906001820180921161138e57565b9190820180921161138e57565b8054600160401b8110156115e157612c2f916001820181556121c5565b819291549060031b91821b915f19901b1916179055565b8054600160401b8110156115e157612c63916001820181556121c5565b81546001600160a01b0393841660039290921b91821b9390911b1916919091179055565b60ff5f5416612c9257565b63d93c066560e01b5f5260045ffd5b61ffff166005811015612cd2576003811015612ccb5760021115612cc55761271090565b612af890565b50612ee090565b50613a9890565b90815f925b612ce55750565b915f19830183811161138e57612cfe9316928391612707565b92612cde565b90915f925f5b828110612d3157505050612d246107f692612d2c92612bac565b600554612c05565b600555565b612d6a612d5d612d44610bf784866121c5565b6001600160a01b03165f908152600e6020526040902090565b546001600160a01b031690565b6001600160a01b0381169081612d85575b5050600101612d0a565b612dd7612dc5916001949398612dac612d9d8a612b42565b612da68a612b5a565b90612961565b93849260018060a01b03165f52600f60205260405f2090565b612dd0838254612c05565b9055612c05565b967f0a721ab4682ceb61c7e4d264ef879fc419a6d764b136e7d96ef54b2053c75673612e39612e27612e0986896121c5565b905460a089901b8990039260039290921b1c6001600160a01b031690565b60405195865216939081906020820190565b0390a3905f612d7b565b612e5d9061ffff612e5661271094612ca1565b1690612b6d565b0490565b9290925f5b848110612e765750505050505f90565b825f52600b60205283612eb360405f20612e9084866121c5565b905460039190911b1c6001600160a01b03165f9081526020919091526040902090565b5414612ec157600101612e66565b935050505090565b805f52601060205260ff60405f205460181c1691815f52601260205260ff612f038261061b8660405f209060ff165f5260205260405f2090565b541615612f0f57505050565b612f937f45e1b9e1211bef7bd7e837aafa9460211306d0ac3999375783f3a2c780071bef91835f526012602052612f5b6123e18261061b8860405f209060ff165f5260205260405f2090565b612f758161240487610b77885f52601360205260405f2090565b60405160ff90951685526001600160a01b0316939081906020820190565b0390a356fea26469706673582212207934e9eb369a8275215b037990998ff32ab103dfcf02c97842ac4757927b53b364736f6c634300081c0033","linkReferences":{}},"methodIdentifiers":{"addArenaToTournament(uint256,uint256,uint8)":"82df8f4b","advanceTournamentRound(uint256)":"66df9056","arenas(uint256)":"84f4319c","commitPrediction(uint256,bytes32)":"1b14886f","commits(uint256,address)":"885d68a8","computeCommitHash(uint256,address,bytes32,uint256)":"e991a864","createArena(uint8,uint40)":"124a7b0b","createTournament(uint8,uint8,uint8)":"44118d0a","depositTournamentPot(uint256)":"5a438492","emergencyWithdraw(uint256)":"5312ea8e","finalizeArena(uint256)":"82724b6c","finalizeTournament(uint256)":"1ba619a4","getArena(uint256)":"1a8425b4","getEntryFee(uint8)":"0d4158c2","getPlayers(uint256)":"460e2049","getRakeBps(uint8)":"048416b6","getStreakMultiplier(uint16)":"2cbba7e6","getTournament(uint256)":"1a5bd7fc","getTournamentQualifiedPlayers(uint256,uint8)":"2c59a0da","getTournamentRoundArenas(uint256,uint8)":"9a4ea4cd","godStreak(address)":"6918dca2","highlightsNFT()":"76831510","joinArena(uint256)":"f6b3a00a","joined(uint256,address)":"bea5fcc5","nextArenaId()":"cf8753b2","nextTournamentId()":"852efc3d","owner()":"8da5cb5b","pause()":"8456cb59","paused()":"5c975abb","priceTapes(uint256)":"7e260637","referrer(address)":"2cf003c2","referrerBalance(address)":"c4cfd698","revealPrediction(uint256,uint256,bytes32)":"165d059e","reveals(uint256,address)":"4ef14888","scores(uint256,address)":"7a07b674","setHighlightsNFT(address)":"7153ce54","setReferrer(address)":"a18a7bfc","submitPriceTape(uint256,bytes)":"0d0def7e","tournamentQualified(uint256,uint8,address)":"28a23334","tournamentRoundArenas(uint256,uint8,uint256)":"a3c65860","tournaments(uint256)":"7503e1b7","treasuryBalance()":"313dab20","unpause()":"3f4ba83a","withdrawReferralEarnings()":"451459f2","withdrawTreasury()":"166bab95"},"id":36}